{
    "_format": "hh-sol-artifact-1",
    "contractName": "Burnable",
    "sourceName": "contracts/Burnable.sol",
    "abi": [
        {
            "inputs": [],
            "stateMutability": "nonpayable",
            "type": "constructor"
        },
        {
            "anonymous": false,
            "inputs": [
                {
                    "indexed": true,
                    "internalType": "address",
                    "name": "owner",
                    "type": "address"
                },
                {
                    "indexed": true,
                    "internalType": "address",
                    "name": "approved",
                    "type": "address"
                },
                {
                    "indexed": true,
                    "internalType": "uint256",
                    "name": "tokenId",
                    "type": "uint256"
                }
            ],
            "name": "Approval",
            "type": "event"
        },
        {
            "anonymous": false,
            "inputs": [
                {
                    "indexed": true,
                    "internalType": "address",
                    "name": "owner",
                    "type": "address"
                },
                {
                    "indexed": true,
                    "internalType": "address",
                    "name": "operator",
                    "type": "address"
                },
                {
                    "indexed": false,
                    "internalType": "bool",
                    "name": "approved",
                    "type": "bool"
                }
            ],
            "name": "ApprovalForAll",
            "type": "event"
        },
        {
            "anonymous": false,
            "inputs": [
                {
                    "indexed": true,
                    "internalType": "address",
                    "name": "from",
                    "type": "address"
                },
                {
                    "indexed": true,
                    "internalType": "address",
                    "name": "to",
                    "type": "address"
                },
                {
                    "indexed": true,
                    "internalType": "uint256",
                    "name": "tokenId",
                    "type": "uint256"
                }
            ],
            "name": "Transfer",
            "type": "event"
        },
        {
            "inputs": [
                {
                    "internalType": "address",
                    "name": "to",
                    "type": "address"
                },
                {
                    "internalType": "uint256",
                    "name": "tokenId",
                    "type": "uint256"
                }
            ],
            "name": "approve",
            "outputs": [],
            "stateMutability": "nonpayable",
            "type": "function"
        },
        {
            "inputs": [
                {
                    "internalType": "address",
                    "name": "owner",
                    "type": "address"
                }
            ],
            "name": "balanceOf",
            "outputs": [
                {
                    "internalType": "uint256",
                    "name": "",
                    "type": "uint256"
                }
            ],
            "stateMutability": "view",
            "type": "function"
        },
        {
            "inputs": [
                {
                    "internalType": "uint256",
                    "name": "_tokenId",
                    "type": "uint256"
                }
            ],
            "name": "burn",
            "outputs": [],
            "stateMutability": "nonpayable",
            "type": "function"
        },
        {
            "inputs": [
                {
                    "internalType": "uint256",
                    "name": "tokenId",
                    "type": "uint256"
                }
            ],
            "name": "getApproved",
            "outputs": [
                {
                    "internalType": "address",
                    "name": "",
                    "type": "address"
                }
            ],
            "stateMutability": "view",
            "type": "function"
        },
        {
            "inputs": [
                {
                    "internalType": "address",
                    "name": "owner",
                    "type": "address"
                },
                {
                    "internalType": "address",
                    "name": "operator",
                    "type": "address"
                }
            ],
            "name": "isApprovedForAll",
            "outputs": [
                {
                    "internalType": "bool",
                    "name": "",
                    "type": "bool"
                }
            ],
            "stateMutability": "view",
            "type": "function"
        },
        {
            "inputs": [],
            "name": "mintBurnable",
            "outputs": [
                {
                    "internalType": "uint256",
                    "name": "",
                    "type": "uint256"
                }
            ],
            "stateMutability": "payable",
            "type": "function"
        },
        {
            "inputs": [],
            "name": "name",
            "outputs": [
                {
                    "internalType": "string",
                    "name": "",
                    "type": "string"
                }
            ],
            "stateMutability": "view",
            "type": "function"
        },
        {
            "inputs": [
                {
                    "internalType": "uint256",
                    "name": "tokenId",
                    "type": "uint256"
                }
            ],
            "name": "ownerOf",
            "outputs": [
                {
                    "internalType": "address",
                    "name": "",
                    "type": "address"
                }
            ],
            "stateMutability": "view",
            "type": "function"
        },
        {
            "inputs": [
                {
                    "internalType": "address",
                    "name": "from",
                    "type": "address"
                },
                {
                    "internalType": "address",
                    "name": "to",
                    "type": "address"
                },
                {
                    "internalType": "uint256",
                    "name": "tokenId",
                    "type": "uint256"
                }
            ],
            "name": "safeTransferFrom",
            "outputs": [],
            "stateMutability": "nonpayable",
            "type": "function"
        },
        {
            "inputs": [
                {
                    "internalType": "address",
                    "name": "from",
                    "type": "address"
                },
                {
                    "internalType": "address",
                    "name": "to",
                    "type": "address"
                },
                {
                    "internalType": "uint256",
                    "name": "tokenId",
                    "type": "uint256"
                },
                {
                    "internalType": "bytes",
                    "name": "data",
                    "type": "bytes"
                }
            ],
            "name": "safeTransferFrom",
            "outputs": [],
            "stateMutability": "nonpayable",
            "type": "function"
        },
        {
            "inputs": [
                {
                    "internalType": "address",
                    "name": "operator",
                    "type": "address"
                },
                {
                    "internalType": "bool",
                    "name": "approved",
                    "type": "bool"
                }
            ],
            "name": "setApprovalForAll",
            "outputs": [],
            "stateMutability": "nonpayable",
            "type": "function"
        },
        {
            "inputs": [
                {
                    "internalType": "bytes4",
                    "name": "interfaceId",
                    "type": "bytes4"
                }
            ],
            "name": "supportsInterface",
            "outputs": [
                {
                    "internalType": "bool",
                    "name": "",
                    "type": "bool"
                }
            ],
            "stateMutability": "view",
            "type": "function"
        },
        {
            "inputs": [],
            "name": "symbol",
            "outputs": [
                {
                    "internalType": "string",
                    "name": "",
                    "type": "string"
                }
            ],
            "stateMutability": "view",
            "type": "function"
        },
        {
            "inputs": [
                {
                    "internalType": "uint256",
                    "name": "tokenId",
                    "type": "uint256"
                }
            ],
            "name": "tokenURI",
            "outputs": [
                {
                    "internalType": "string",
                    "name": "",
                    "type": "string"
                }
            ],
            "stateMutability": "view",
            "type": "function"
        },
        {
            "inputs": [
                {
                    "internalType": "address",
                    "name": "from",
                    "type": "address"
                },
                {
                    "internalType": "address",
                    "name": "to",
                    "type": "address"
                },
                {
                    "internalType": "uint256",
                    "name": "tokenId",
                    "type": "uint256"
                }
            ],
            "name": "transferFrom",
            "outputs": [],
            "stateMutability": "nonpayable",
            "type": "function"
        }
    ],
    "bytecode": "0x6080604052662386f26fc100006008553480156200001c57600080fd5b506040518060400160405280600881526020017f4275726e61626c650000000000000000000000000000000000000000000000008152506040518060400160405280600481526020017f4255524e0000000000000000000000000000000000000000000000000000000081525081600090816200009a919062000446565b508060019081620000ac919062000446565b505050620000fa6040518060400160405280600e81526020017f4275726e61626c652073746172740000000000000000000000000000000000008152506200010060201b62000bfd1760201c565b620005e0565b620001a081604051602401620001179190620005bc565b6040516020818303038152906040527f41304fac000000000000000000000000000000000000000000000000000000007bffffffffffffffffffffffffffffffffffffffffffffffffffffffff19166020820180517bffffffffffffffffffffffffffffffffffffffffffffffffffffffff8381831617835250505050620001a360201b60201c565b50565b60008151905060006a636f6e736f6c652e6c6f679050602083016000808483855afa5050505050565b600081519050919050565b7f4e487b7100000000000000000000000000000000000000000000000000000000600052604160045260246000fd5b7f4e487b7100000000000000000000000000000000000000000000000000000000600052602260045260246000fd5b600060028204905060018216806200024e57607f821691505b60208210810362000264576200026362000206565b5b50919050565b60008190508160005260206000209050919050565b60006020601f8301049050919050565b600082821b905092915050565b600060088302620002ce7fffffffffffffffffffffffffffffffffffffffffffffffffffffffffffffffff826200028f565b620002da86836200028f565b95508019841693508086168417925050509392505050565b6000819050919050565b6000819050919050565b600062000327620003216200031b84620002f2565b620002fc565b620002f2565b9050919050565b6000819050919050565b620003438362000306565b6200035b62000352826200032e565b8484546200029c565b825550505050565b600090565b6200037262000363565b6200037f81848462000338565b505050565b5b81811015620003a7576200039b60008262000368565b60018101905062000385565b5050565b601f821115620003f657620003c0816200026a565b620003cb846200027f565b81016020851015620003db578190505b620003f3620003ea856200027f565b83018262000384565b50505b505050565b600082821c905092915050565b60006200041b60001984600802620003fb565b1980831691505092915050565b600062000436838362000408565b9150826002028217905092915050565b6200045182620001cc565b67ffffffffffffffff8111156200046d576200046c620001d7565b5b62000479825462000235565b62000486828285620003ab565b600060209050601f831160018114620004be5760008415620004a9578287015190505b620004b5858262000428565b86555062000525565b601f198416620004ce866200026a565b60005b82811015620004f857848901518255600182019150602085019450602081019050620004d1565b8683101562000518578489015162000514601f89168262000408565b8355505b6001600288020188555050505b505050505050565b600082825260208201905092915050565b60005b838110156200055e57808201518184015260208101905062000541565b60008484015250505050565b6000601f19601f8301169050919050565b60006200058882620001cc565b6200059481856200052d565b9350620005a68185602086016200053e565b620005b1816200056a565b840191505092915050565b60006020820190508181036000830152620005d881846200057b565b905092915050565b612bd580620005f06000396000f3fe6080604052600436106100e85760003560e01c806342966c681161008a578063a22cb46511610059578063a22cb465146102f9578063b88d4fde14610322578063c87b56dd1461034b578063e985e9c514610388576100e8565b806342966c681461022b5780636352211e1461025457806370a082311461029157806395d89b41146102ce576100e8565b8063095ea7b3116100c6578063095ea7b314610192578063191fc919146101bb57806323b872dd146101d957806342842e0e14610202576100e8565b806301ffc9a7146100ed57806306fdde031461012a578063081812fc14610155575b600080fd5b3480156100f957600080fd5b50610114600480360381019061010f9190611b79565b6103c5565b6040516101219190611bc1565b60405180910390f35b34801561013657600080fd5b5061013f6104a7565b60405161014c9190611c6c565b60405180910390f35b34801561016157600080fd5b5061017c60048036038101906101779190611cc4565b610539565b6040516101899190611d32565b60405180910390f35b34801561019e57600080fd5b506101b960048036038101906101b49190611d79565b61057f565b005b6101c3610696565b6040516101d09190611dc8565b60405180910390f35b3480156101e557600080fd5b5061020060048036038101906101fb9190611de3565b6106f1565b005b34801561020e57600080fd5b5061022960048036038101906102249190611de3565b610751565b005b34801561023757600080fd5b50610252600480360381019061024d9190611cc4565b610771565b005b34801561026057600080fd5b5061027b60048036038101906102769190611cc4565b610810565b6040516102889190611d32565b60405180910390f35b34801561029d57600080fd5b506102b860048036038101906102b39190611e36565b610896565b6040516102c59190611dc8565b60405180910390f35b3480156102da57600080fd5b506102e361094d565b6040516102f09190611c6c565b60405180910390f35b34801561030557600080fd5b50610320600480360381019061031b9190611e8f565b6109df565b005b34801561032e57600080fd5b5061034960048036038101906103449190612004565b6109f5565b005b34801561035757600080fd5b50610372600480360381019061036d9190611cc4565b610a57565b60405161037f9190611c6c565b60405180910390f35b34801561039457600080fd5b506103af60048036038101906103aa9190612087565b610b69565b6040516103bc9190611bc1565b60405180910390f35b60007f80ac58cd000000000000000000000000000000000000000000000000000000007bffffffffffffffffffffffffffffffffffffffffffffffffffffffff1916827bffffffffffffffffffffffffffffffffffffffffffffffffffffffff1916148061049057507f5b5e139f000000000000000000000000000000000000000000000000000000007bffffffffffffffffffffffffffffffffffffffffffffffffffffffff1916827bffffffffffffffffffffffffffffffffffffffffffffffffffffffff1916145b806104a0575061049f82610c96565b5b9050919050565b6060600080546104b6906120f6565b80601f01602080910402602001604051908101604052809291908181526020018280546104e2906120f6565b801561052f5780601f106105045761010080835404028352916020019161052f565b820191906000526020600020905b81548152906001019060200180831161051257829003601f168201915b5050505050905090565b600061054482610d00565b6004600083815260200190815260200160002060009054906101000a900473ffffffffffffffffffffffffffffffffffffffff169050919050565b600061058a82610810565b90508073ffffffffffffffffffffffffffffffffffffffff168373ffffffffffffffffffffffffffffffffffffffff16036105fa576040517f08c379a00000000000000000000000000000000000000000000000000000000081526004016105f190612199565b60405180910390fd5b8073ffffffffffffffffffffffffffffffffffffffff16610619610d4b565b73ffffffffffffffffffffffffffffffffffffffff161480610648575061064781610642610d4b565b610b69565b5b610687576040517f08c379a000000000000000000000000000000000000000000000000000000000815260040161067e9061222b565b60405180910390fd5b6106918383610d53565b505050565b600060085434146106a657600080fd5b6106b06007610e0c565b60006106bc6007610e22565b90506106c83382610e30565b6106ea81604051806080016040528060488152602001612b586048913961104d565b8091505090565b6107026106fc610d4b565b826110ba565b610741576040517f08c379a0000000000000000000000000000000000000000000000000000000008152600401610738906122bd565b60405180910390fd5b61074c83838361114f565b505050565b61076c838383604051806020016040528060008152506109f5565b505050565b3373ffffffffffffffffffffffffffffffffffffffff1661079182610810565b73ffffffffffffffffffffffffffffffffffffffff16146107b157600080fd5b6107be3361dead8361114f565b60003390508073ffffffffffffffffffffffffffffffffffffffff166108fc6008549081150290604051600060405180830381858888f1935050505015801561080b573d6000803e3d6000fd5b505050565b60008061081c83611448565b9050600073ffffffffffffffffffffffffffffffffffffffff168173ffffffffffffffffffffffffffffffffffffffff160361088d576040517f08c379a000000000000000000000000000000000000000000000000000000000815260040161088490612329565b60405180910390fd5b80915050919050565b60008073ffffffffffffffffffffffffffffffffffffffff168273ffffffffffffffffffffffffffffffffffffffff1603610906576040517f08c379a00000000000000000000000000000000000000000000000000000000081526004016108fd906123bb565b60405180910390fd5b600360008373ffffffffffffffffffffffffffffffffffffffff1673ffffffffffffffffffffffffffffffffffffffff168152602001908152602001600020549050919050565b60606001805461095c906120f6565b80601f0160208091040260200160405190810160405280929190818152602001828054610988906120f6565b80156109d55780601f106109aa576101008083540402835291602001916109d5565b820191906000526020600020905b8154815290600101906020018083116109b857829003601f168201915b5050505050905090565b6109f16109ea610d4b565b8383611485565b5050565b610a06610a00610d4b565b836110ba565b610a45576040517f08c379a0000000000000000000000000000000000000000000000000000000008152600401610a3c906122bd565b60405180910390fd5b610a51848484846115f1565b50505050565b6060610a6282610d00565b6000600660008481526020019081526020016000208054610a82906120f6565b80601f0160208091040260200160405190810160405280929190818152602001828054610aae906120f6565b8015610afb5780601f10610ad057610100808354040283529160200191610afb565b820191906000526020600020905b815481529060010190602001808311610ade57829003601f168201915b505050505090506000610b0c61164d565b90506000815103610b21578192505050610b64565b600082511115610b56578082604051602001610b3e929190612417565b60405160208183030381529060405292505050610b64565b610b5f84611664565b925050505b919050565b6000600560008473ffffffffffffffffffffffffffffffffffffffff1673ffffffffffffffffffffffffffffffffffffffff16815260200190815260200160002060008373ffffffffffffffffffffffffffffffffffffffff1673ffffffffffffffffffffffffffffffffffffffff16815260200190815260200160002060009054906101000a900460ff16905092915050565b610c9381604051602401610c119190611c6c565b6040516020818303038152906040527f41304fac000000000000000000000000000000000000000000000000000000007bffffffffffffffffffffffffffffffffffffffffffffffffffffffff19166020820180517bffffffffffffffffffffffffffffffffffffffffffffffffffffffff83818316178352505050506116cc565b50565b60007f01ffc9a7000000000000000000000000000000000000000000000000000000007bffffffffffffffffffffffffffffffffffffffffffffffffffffffff1916827bffffffffffffffffffffffffffffffffffffffffffffffffffffffff1916149050919050565b610d09816116f5565b610d48576040517f08c379a0000000000000000000000000000000000000000000000000000000008152600401610d3f90612329565b60405180910390fd5b50565b600033905090565b816004600083815260200190815260200160002060006101000a81548173ffffffffffffffffffffffffffffffffffffffff021916908373ffffffffffffffffffffffffffffffffffffffff160217905550808273ffffffffffffffffffffffffffffffffffffffff16610dc683610810565b73ffffffffffffffffffffffffffffffffffffffff167f8c5be1e5ebec7d5bd14f71427d1e84f3dd0314c0f7b2291e5b200ac8c7c3b92560405160405180910390a45050565b6001816000016000828254019250508190555050565b600081600001549050919050565b600073ffffffffffffffffffffffffffffffffffffffff168273ffffffffffffffffffffffffffffffffffffffff1603610e9f576040517f08c379a0000000000000000000000000000000000000000000000000000000008152600401610e9690612487565b60405180910390fd5b610ea8816116f5565b15610ee8576040517f08c379a0000000000000000000000000000000000000000000000000000000008152600401610edf906124f3565b60405180910390fd5b610ef6600083836001611736565b610eff816116f5565b15610f3f576040517f08c379a0000000000000000000000000000000000000000000000000000000008152600401610f36906124f3565b60405180910390fd5b6001600360008473ffffffffffffffffffffffffffffffffffffffff1673ffffffffffffffffffffffffffffffffffffffff16815260200190815260200160002060008282540192505081905550816002600083815260200190815260200160002060006101000a81548173ffffffffffffffffffffffffffffffffffffffff021916908373ffffffffffffffffffffffffffffffffffffffff160217905550808273ffffffffffffffffffffffffffffffffffffffff16600073ffffffffffffffffffffffffffffffffffffffff167fddf252ad1be2c89b69c2b068fc378daa952ba7f163c4a11628f55a4df523b3ef60405160405180910390a461104960008383600161173c565b5050565b611056826116f5565b611095576040517f08c379a000000000000000000000000000000000000000000000000000000000815260040161108c90612585565b60405180910390fd5b806006600084815260200190815260200160002090816110b59190612751565b505050565b6000806110c683610810565b90508073ffffffffffffffffffffffffffffffffffffffff168473ffffffffffffffffffffffffffffffffffffffff16148061110857506111078185610b69565b5b8061114657508373ffffffffffffffffffffffffffffffffffffffff1661112e84610539565b73ffffffffffffffffffffffffffffffffffffffff16145b91505092915050565b8273ffffffffffffffffffffffffffffffffffffffff1661116f82610810565b73ffffffffffffffffffffffffffffffffffffffff16146111c5576040517f08c379a00000000000000000000000000000000000000000000000000000000081526004016111bc90612895565b60405180910390fd5b600073ffffffffffffffffffffffffffffffffffffffff168273ffffffffffffffffffffffffffffffffffffffff1603611234576040517f08c379a000000000000000000000000000000000000000000000000000000000815260040161122b90612927565b60405180910390fd5b6112418383836001611736565b8273ffffffffffffffffffffffffffffffffffffffff1661126182610810565b73ffffffffffffffffffffffffffffffffffffffff16146112b7576040517f08c379a00000000000000000000000000000000000000000000000000000000081526004016112ae90612895565b60405180910390fd5b6004600082815260200190815260200160002060006101000a81549073ffffffffffffffffffffffffffffffffffffffff02191690556001600360008573ffffffffffffffffffffffffffffffffffffffff1673ffffffffffffffffffffffffffffffffffffffff168152602001908152602001600020600082825403925050819055506001600360008473ffffffffffffffffffffffffffffffffffffffff1673ffffffffffffffffffffffffffffffffffffffff16815260200190815260200160002060008282540192505081905550816002600083815260200190815260200160002060006101000a81548173ffffffffffffffffffffffffffffffffffffffff021916908373ffffffffffffffffffffffffffffffffffffffff160217905550808273ffffffffffffffffffffffffffffffffffffffff168473ffffffffffffffffffffffffffffffffffffffff167fddf252ad1be2c89b69c2b068fc378daa952ba7f163c4a11628f55a4df523b3ef60405160405180910390a4611443838383600161173c565b505050565b60006002600083815260200190815260200160002060009054906101000a900473ffffffffffffffffffffffffffffffffffffffff169050919050565b8173ffffffffffffffffffffffffffffffffffffffff168373ffffffffffffffffffffffffffffffffffffffff16036114f3576040517f08c379a00000000000000000000000000000000000000000000000000000000081526004016114ea90612993565b60405180910390fd5b80600560008573ffffffffffffffffffffffffffffffffffffffff1673ffffffffffffffffffffffffffffffffffffffff16815260200190815260200160002060008473ffffffffffffffffffffffffffffffffffffffff1673ffffffffffffffffffffffffffffffffffffffff16815260200190815260200160002060006101000a81548160ff0219169083151502179055508173ffffffffffffffffffffffffffffffffffffffff168373ffffffffffffffffffffffffffffffffffffffff167f17307eab39ab6107e8899845ad3d59bd9653f200f220920489ca2b5937696c31836040516115e49190611bc1565b60405180910390a3505050565b6115fc84848461114f565b61160884848484611742565b611647576040517f08c379a000000000000000000000000000000000000000000000000000000000815260040161163e90612a25565b60405180910390fd5b50505050565b606060405180602001604052806000815250905090565b606061166f82610d00565b600061167961164d565b9050600081511161169957604051806020016040528060008152506116c4565b806116a3846118c9565b6040516020016116b4929190612417565b6040516020818303038152906040525b915050919050565b60008151905060006a636f6e736f6c652e6c6f679050602083016000808483855afa5050505050565b60008073ffffffffffffffffffffffffffffffffffffffff1661171783611448565b73ffffffffffffffffffffffffffffffffffffffff1614159050919050565b50505050565b50505050565b60006117638473ffffffffffffffffffffffffffffffffffffffff16611997565b156118bc578373ffffffffffffffffffffffffffffffffffffffff1663150b7a0261178c610d4b565b8786866040518563ffffffff1660e01b81526004016117ae9493929190612a9a565b6020604051808303816000875af19250505080156117ea57506040513d601f19601f820116820180604052508101906117e79190612afb565b60015b61186c573d806000811461181a576040519150601f19603f3d011682016040523d82523d6000602084013e61181f565b606091505b506000815103611864576040517f08c379a000000000000000000000000000000000000000000000000000000000815260040161185b90612a25565b60405180910390fd5b805181602001fd5b63150b7a0260e01b7bffffffffffffffffffffffffffffffffffffffffffffffffffffffff1916817bffffffffffffffffffffffffffffffffffffffffffffffffffffffff1916149150506118c1565b600190505b949350505050565b6060600060016118d8846119ba565b01905060008167ffffffffffffffff8111156118f7576118f6611ed9565b5b6040519080825280601f01601f1916602001820160405280156119295781602001600182028036833780820191505090505b509050600082602001820190505b60011561198c578080600190039150507f3031323334353637383961626364656600000000000000000000000000000000600a86061a8153600a85816119805761197f612b28565b5b04945060008503611937575b819350505050919050565b6000808273ffffffffffffffffffffffffffffffffffffffff163b119050919050565b600080600090507a184f03e93ff9f4daa797ed6e38ed64bf6a1f0100000000000000008310611a18577a184f03e93ff9f4daa797ed6e38ed64bf6a1f0100000000000000008381611a0e57611a0d612b28565b5b0492506040810190505b6d04ee2d6d415b85acef81000000008310611a55576d04ee2d6d415b85acef81000000008381611a4b57611a4a612b28565b5b0492506020810190505b662386f26fc100008310611a8457662386f26fc100008381611a7a57611a79612b28565b5b0492506010810190505b6305f5e1008310611aad576305f5e1008381611aa357611aa2612b28565b5b0492506008810190505b6127108310611ad2576127108381611ac857611ac7612b28565b5b0492506004810190505b60648310611af55760648381611aeb57611aea612b28565b5b0492506002810190505b600a8310611b04576001810190505b80915050919050565b6000604051905090565b600080fd5b600080fd5b60007fffffffff0000000000000000000000000000000000000000000000000000000082169050919050565b611b5681611b21565b8114611b6157600080fd5b50565b600081359050611b7381611b4d565b92915050565b600060208284031215611b8f57611b8e611b17565b5b6000611b9d84828501611b64565b91505092915050565b60008115159050919050565b611bbb81611ba6565b82525050565b6000602082019050611bd66000830184611bb2565b92915050565b600081519050919050565b600082825260208201905092915050565b60005b83811015611c16578082015181840152602081019050611bfb565b60008484015250505050565b6000601f19601f8301169050919050565b6000611c3e82611bdc565b611c488185611be7565b9350611c58818560208601611bf8565b611c6181611c22565b840191505092915050565b60006020820190508181036000830152611c868184611c33565b905092915050565b6000819050919050565b611ca181611c8e565b8114611cac57600080fd5b50565b600081359050611cbe81611c98565b92915050565b600060208284031215611cda57611cd9611b17565b5b6000611ce884828501611caf565b91505092915050565b600073ffffffffffffffffffffffffffffffffffffffff82169050919050565b6000611d1c82611cf1565b9050919050565b611d2c81611d11565b82525050565b6000602082019050611d476000830184611d23565b92915050565b611d5681611d11565b8114611d6157600080fd5b50565b600081359050611d7381611d4d565b92915050565b60008060408385031215611d9057611d8f611b17565b5b6000611d9e85828601611d64565b9250506020611daf85828601611caf565b9150509250929050565b611dc281611c8e565b82525050565b6000602082019050611ddd6000830184611db9565b92915050565b600080600060608486031215611dfc57611dfb611b17565b5b6000611e0a86828701611d64565b9350506020611e1b86828701611d64565b9250506040611e2c86828701611caf565b9150509250925092565b600060208284031215611e4c57611e4b611b17565b5b6000611e5a84828501611d64565b91505092915050565b611e6c81611ba6565b8114611e7757600080fd5b50565b600081359050611e8981611e63565b92915050565b60008060408385031215611ea657611ea5611b17565b5b6000611eb485828601611d64565b9250506020611ec585828601611e7a565b9150509250929050565b600080fd5b600080fd5b7f4e487b7100000000000000000000000000000000000000000000000000000000600052604160045260246000fd5b611f1182611c22565b810181811067ffffffffffffffff82111715611f3057611f2f611ed9565b5b80604052505050565b6000611f43611b0d565b9050611f4f8282611f08565b919050565b600067ffffffffffffffff821115611f6f57611f6e611ed9565b5b611f7882611c22565b9050602081019050919050565b82818337600083830152505050565b6000611fa7611fa284611f54565b611f39565b905082815260208101848484011115611fc357611fc2611ed4565b5b611fce848285611f85565b509392505050565b600082601f830112611feb57611fea611ecf565b5b8135611ffb848260208601611f94565b91505092915050565b6000806000806080858703121561201e5761201d611b17565b5b600061202c87828801611d64565b945050602061203d87828801611d64565b935050604061204e87828801611caf565b925050606085013567ffffffffffffffff81111561206f5761206e611b1c565b5b61207b87828801611fd6565b91505092959194509250565b6000806040838503121561209e5761209d611b17565b5b60006120ac85828601611d64565b92505060206120bd85828601611d64565b9150509250929050565b7f4e487b7100000000000000000000000000000000000000000000000000000000600052602260045260246000fd5b6000600282049050600182168061210e57607f821691505b602082108103612121576121206120c7565b5b50919050565b7f4552433732313a20617070726f76616c20746f2063757272656e74206f776e6560008201527f7200000000000000000000000000000000000000000000000000000000000000602082015250565b6000612183602183611be7565b915061218e82612127565b604082019050919050565b600060208201905081810360008301526121b281612176565b9050919050565b7f4552433732313a20617070726f76652063616c6c6572206973206e6f7420746f60008201527f6b656e206f776e6572206f7220617070726f76656420666f7220616c6c000000602082015250565b6000612215603d83611be7565b9150612220826121b9565b604082019050919050565b6000602082019050818103600083015261224481612208565b9050919050565b7f4552433732313a2063616c6c6572206973206e6f7420746f6b656e206f776e6560008201527f72206f7220617070726f76656400000000000000000000000000000000000000602082015250565b60006122a7602d83611be7565b91506122b28261224b565b604082019050919050565b600060208201905081810360008301526122d68161229a565b9050919050565b7f4552433732313a20696e76616c696420746f6b656e2049440000000000000000600082015250565b6000612313601883611be7565b915061231e826122dd565b602082019050919050565b6000602082019050818103600083015261234281612306565b9050919050565b7f4552433732313a2061646472657373207a65726f206973206e6f74206120766160008201527f6c6964206f776e65720000000000000000000000000000000000000000000000602082015250565b60006123a5602983611be7565b91506123b082612349565b604082019050919050565b600060208201905081810360008301526123d481612398565b9050919050565b600081905092915050565b60006123f182611bdc565b6123fb81856123db565b935061240b818560208601611bf8565b80840191505092915050565b600061242382856123e6565b915061242f82846123e6565b91508190509392505050565b7f4552433732313a206d696e7420746f20746865207a65726f2061646472657373600082015250565b6000612471602083611be7565b915061247c8261243b565b602082019050919050565b600060208201905081810360008301526124a081612464565b9050919050565b7f4552433732313a20746f6b656e20616c7265616479206d696e74656400000000600082015250565b60006124dd601c83611be7565b91506124e8826124a7565b602082019050919050565b6000602082019050818103600083015261250c816124d0565b9050919050565b7f45524337323155524953746f726167653a2055524920736574206f66206e6f6e60008201527f6578697374656e7420746f6b656e000000000000000000000000000000000000602082015250565b600061256f602e83611be7565b915061257a82612513565b604082019050919050565b6000602082019050818103600083015261259e81612562565b9050919050565b60008190508160005260206000209050919050565b60006020601f8301049050919050565b600082821b905092915050565b6000600883026126077fffffffffffffffffffffffffffffffffffffffffffffffffffffffffffffffff826125ca565b61261186836125ca565b95508019841693508086168417925050509392505050565b6000819050919050565b600061264e61264961264484611c8e565b612629565b611c8e565b9050919050565b6000819050919050565b61266883612633565b61267c61267482612655565b8484546125d7565b825550505050565b600090565b612691612684565b61269c81848461265f565b505050565b5b818110156126c0576126b5600082612689565b6001810190506126a2565b5050565b601f821115612705576126d6816125a5565b6126df846125ba565b810160208510156126ee578190505b6127026126fa856125ba565b8301826126a1565b50505b505050565b600082821c905092915050565b60006127286000198460080261270a565b1980831691505092915050565b60006127418383612717565b9150826002028217905092915050565b61275a82611bdc565b67ffffffffffffffff81111561277357612772611ed9565b5b61277d82546120f6565b6127888282856126c4565b600060209050601f8311600181146127bb57600084156127a9578287015190505b6127b38582612735565b86555061281b565b601f1984166127c9866125a5565b60005b828110156127f1578489015182556001820191506020850194506020810190506127cc565b8683101561280e578489015161280a601f891682612717565b8355505b6001600288020188555050505b505050505050565b7f4552433732313a207472616e736665722066726f6d20696e636f72726563742060008201527f6f776e6572000000000000000000000000000000000000000000000000000000602082015250565b600061287f602583611be7565b915061288a82612823565b604082019050919050565b600060208201905081810360008301526128ae81612872565b9050919050565b7f4552433732313a207472616e7366657220746f20746865207a65726f2061646460008201527f7265737300000000000000000000000000000000000000000000000000000000602082015250565b6000612911602483611be7565b915061291c826128b5565b604082019050919050565b6000602082019050818103600083015261294081612904565b9050919050565b7f4552433732313a20617070726f766520746f2063616c6c657200000000000000600082015250565b600061297d601983611be7565b915061298882612947565b602082019050919050565b600060208201905081810360008301526129ac81612970565b9050919050565b7f4552433732313a207472616e7366657220746f206e6f6e20455243373231526560008201527f63656976657220696d706c656d656e7465720000000000000000000000000000602082015250565b6000612a0f603283611be7565b9150612a1a826129b3565b604082019050919050565b60006020820190508181036000830152612a3e81612a02565b9050919050565b600081519050919050565b600082825260208201905092915050565b6000612a6c82612a45565b612a768185612a50565b9350612a86818560208601611bf8565b612a8f81611c22565b840191505092915050565b6000608082019050612aaf6000830187611d23565b612abc6020830186611d23565b612ac96040830185611db9565b8181036060830152612adb8184612a61565b905095945050505050565b600081519050612af581611b4d565b92915050565b600060208284031215612b1157612b10611b17565b5b6000612b1f84828501612ae6565b91505092915050565b7f4e487b7100000000000000000000000000000000000000000000000000000000600052601260045260246000fdfe68747470733a2f2f697066732e696f2f697066732f516d65536a53696e4870506e6d586d73704d6a776958794e367a533445397a63636172694752336a7863615774712f39343733a26469706673582212200c5a582c65a880ce9cfc7f02bb2c6bf4fc7979d59373a28fe883576c7768876564736f6c63430008110033",
    "linkReferences": {},
    "deployedLinkReferences": {}
}